{
  "contractName": "Voting",
  "abi": [
    {
      "constant": true,
      "inputs": [
        {
          "name": "",
          "type": "bytes32"
        }
      ],
      "name": "voterInfo",
      "outputs": [
        {
          "name": "voterAddress",
          "type": "address"
        },
        {
          "name": "tokensAvailable",
          "type": "uint256"
        },
        {
          "name": "name",
          "type": "bytes32"
        }
      ],
      "payable": false,
      "stateMutability": "view",
      "type": "function"
    },
    {
      "constant": true,
      "inputs": [],
      "name": "tokenContract",
      "outputs": [
        {
          "name": "",
          "type": "address"
        }
      ],
      "payable": false,
      "stateMutability": "view",
      "type": "function"
    },
    {
      "constant": true,
      "inputs": [],
      "name": "tokensAvailable",
      "outputs": [
        {
          "name": "",
          "type": "uint256"
        }
      ],
      "payable": false,
      "stateMutability": "view",
      "type": "function"
    },
    {
      "constant": true,
      "inputs": [
        {
          "name": "",
          "type": "bytes32"
        }
      ],
      "name": "votesReceived",
      "outputs": [
        {
          "name": "",
          "type": "uint256"
        }
      ],
      "payable": false,
      "stateMutability": "view",
      "type": "function"
    },
    {
      "constant": true,
      "inputs": [],
      "name": "tokenPrice",
      "outputs": [
        {
          "name": "",
          "type": "uint256"
        }
      ],
      "payable": false,
      "stateMutability": "view",
      "type": "function"
    },
    {
      "constant": true,
      "inputs": [
        {
          "name": "",
          "type": "uint256"
        }
      ],
      "name": "candidateList",
      "outputs": [
        {
          "name": "",
          "type": "bytes32"
        }
      ],
      "payable": false,
      "stateMutability": "view",
      "type": "function"
    },
    {
      "constant": true,
      "inputs": [
        {
          "name": "",
          "type": "uint256"
        }
      ],
      "name": "voterAddresses",
      "outputs": [
        {
          "name": "",
          "type": "address"
        }
      ],
      "payable": false,
      "stateMutability": "view",
      "type": "function"
    },
    {
      "inputs": [
        {
          "name": "_tokenContract",
          "type": "address"
        },
        {
          "name": "_tokens",
          "type": "uint256"
        },
        {
          "name": "_pricePerToken",
          "type": "uint256"
        },
        {
          "name": "_candidateNames",
          "type": "bytes32[]"
        }
      ],
      "payable": false,
      "stateMutability": "nonpayable",
      "type": "constructor"
    },
    {
      "constant": false,
      "inputs": [
        {
          "name": "name",
          "type": "bytes32"
        }
      ],
      "name": "registerVoter",
      "outputs": [],
      "payable": false,
      "stateMutability": "nonpayable",
      "type": "function"
    },
    {
      "constant": true,
      "inputs": [],
      "name": "getVoterAddresses",
      "outputs": [
        {
          "name": "",
          "type": "address[]"
        }
      ],
      "payable": false,
      "stateMutability": "view",
      "type": "function"
    },
    {
      "constant": true,
      "inputs": [
        {
          "name": "name",
          "type": "bytes32"
        }
      ],
      "name": "voterDetails",
      "outputs": [
        {
          "name": "",
          "type": "uint256"
        },
        {
          "name": "",
          "type": "uint256[]"
        },
        {
          "name": "",
          "type": "address"
        },
        {
          "name": "",
          "type": "bytes32"
        }
      ],
      "payable": false,
      "stateMutability": "view",
      "type": "function"
    },
    {
      "constant": false,
      "inputs": [
        {
          "name": "name",
          "type": "bytes32"
        }
      ],
      "name": "unregisterVoter",
      "outputs": [],
      "payable": false,
      "stateMutability": "nonpayable",
      "type": "function"
    },
    {
      "constant": false,
      "inputs": [
        {
          "name": "name",
          "type": "bytes32"
        }
      ],
      "name": "buyTokens",
      "outputs": [
        {
          "name": "",
          "type": "uint256"
        }
      ],
      "payable": true,
      "stateMutability": "payable",
      "type": "function"
    },
    {
      "constant": true,
      "inputs": [
        {
          "name": "candidate",
          "type": "bytes32"
        }
      ],
      "name": "totalVotesFor",
      "outputs": [
        {
          "name": "",
          "type": "uint256"
        }
      ],
      "payable": false,
      "stateMutability": "view",
      "type": "function"
    },
    {
      "constant": false,
      "inputs": [
        {
          "name": "candidate",
          "type": "bytes32"
        },
        {
          "name": "name",
          "type": "bytes32"
        }
      ],
      "name": "voteForCandidate",
      "outputs": [],
      "payable": false,
      "stateMutability": "nonpayable",
      "type": "function"
    },
    {
      "constant": true,
      "inputs": [
        {
          "name": "candidate",
          "type": "bytes32"
        }
      ],
      "name": "indexOfCandidate",
      "outputs": [
        {
          "name": "",
          "type": "uint256"
        }
      ],
      "payable": false,
      "stateMutability": "view",
      "type": "function"
    }
  ],
  "bytecode": "0x6060604052341561000f57600080fd5b604051611051380380611051833981016040528080519060200190919080519060200190919080519060200190919080518201919050508160038190555080600490805190602001906100639291906100b5565b508260028190555083600660006101000a81548173ffffffffffffffffffffffffffffffffffffffff021916908373ffffffffffffffffffffffffffffffffffffffff1602179055505050505061012d565b8280548282559060005260206000209081019282156100f7579160200282015b828111156100f65782518290600019169055916020019190600101906100d5565b5b5090506101049190610108565b5090565b61012a91905b8082111561012657600081600090555060010161010e565b5090565b90565b610f158061013c6000396000f3006060604052600436106100db576000357c0100000000000000000000000000000000000000000000000000000000900463ffffffff1680630a16e30b146100e05780631e51c9ea1461014a5780632ebf5c3e1461020f5780632f265cf71461028c57806355a373d6146102c757806360659a921461031c5780637021939f14610345578063793c5d21146103805780637ff9b596146103a7578063824ed7dc146103d0578063a0153cf0146103f7578063b13c744b1461042b578063dd0e23731461046a578063ea7000d6146104cd578063ecd098b0146104fd575b600080fd5b34156100eb57600080fd5b6100f3610538565b6040518080602001828103825283818151815260200191508051906020019060200280838360005b8381101561013657808201518184015260208101905061011b565b505050509050019250505060405180910390f35b341561015557600080fd5b61016f6004808035600019169060200190919050506105cc565b60405180858152602001806020018473ffffffffffffffffffffffffffffffffffffffff1673ffffffffffffffffffffffffffffffffffffffff1681526020018360001916600019168152602001828103825285818151815260200191508051906020019060200280838360005b838110156101f85780820151818401526020810190506101dd565b505050509050019550505050505060405180910390f35b341561021a57600080fd5b6102346004808035600019169060200190919050506106d5565b604051808473ffffffffffffffffffffffffffffffffffffffff1673ffffffffffffffffffffffffffffffffffffffff1681526020018381526020018260001916600019168152602001935050505060405180910390f35b341561029757600080fd5b6102b160048080356000191690602001909190505061071f565b6040518082815260200191505060405180910390f35b34156102d257600080fd5b6102da61077f565b604051808273ffffffffffffffffffffffffffffffffffffffff1673ffffffffffffffffffffffffffffffffffffffff16815260200191505060405180910390f35b341561032757600080fd5b61032f6107a5565b6040518082815260200191505060405180910390f35b341561035057600080fd5b61036a6004808035600019169060200190919050506107ab565b6040518082815260200191505060405180910390f35b341561038b57600080fd5b6103a56004808035600019169060200190919050506107c3565b005b34156103b257600080fd5b6103ba610926565b6040518082815260200191505060405180910390f35b34156103db57600080fd5b6103f560048080356000191690602001909190505061092c565b005b341561040257600080fd5b61042960048080356000191690602001909190803560001916906020019091905050610994565b005b341561043657600080fd5b61044c6004808035906020019091905050610c4f565b60405180826000191660001916815260200191505060405180910390f35b341561047557600080fd5b61048b6004808035906020019091905050610c73565b604051808273ffffffffffffffffffffffffffffffffffffffff1673ffffffffffffffffffffffffffffffffffffffff16815260200191505060405180910390f35b6104e7600480803560001916906020019091905050610cb2565b6040518082815260200191505060405180910390f35b341561050857600080fd5b610522600480803560001916906020019091905050610d7f565b6040518082815260200191505060405180910390f35b610540610dfd565b60058054806020026020016040519081016040528092919081815260200182805480156105c257602002820191906000526020600020905b8160009054906101000a900473ffffffffffffffffffffffffffffffffffffffff1673ffffffffffffffffffffffffffffffffffffffff1681526020019060010190808311610578575b5050505050905090565b60006105d6610e11565b6000806001600086600019166000191681526020019081526020016000206001015460016000876000191660001916815260200190815260200160002060020160016000886000191660001916815260200190815260200160002060000160009054906101000a900473ffffffffffffffffffffffffffffffffffffffff1660016000896000191660001916815260200190815260200160002060030154828054806020026020016040519081016040528092919081815260200182805480156106bf57602002820191906000526020600020905b8154815260200190600101908083116106ab575b5050505050925093509350935093509193509193565b60016020528060005260406000206000915090508060000160009054906101000a900473ffffffffffffffffffffffffffffffffffffffff16908060010154908060030154905083565b60008061072b83610d7f565b90507fffffffffffffffffffffffffffffffffffffffffffffffffffffffffffffffff811415151561075c57600080fd5b600080846000191660001916815260200190815260200160002054915050919050565b600660009054906101000a900473ffffffffffffffffffffffffffffffffffffffff1681565b60025481565b60006020528060005260406000206000915090505481565b8060016000836000191660001916815260200190815260200160002060030181600019169055503360016000836000191660001916815260200190815260200160002060000160006101000a81548173ffffffffffffffffffffffffffffffffffffffff021916908373ffffffffffffffffffffffffffffffffffffffff160217905550600060016000836000191660001916815260200190815260200160002060010181905550606060405190810160405280600060ff168152602001600060ff168152602001600060ff168152506001600083600019166000191681526020019081526020016000206002019060036108bf929190610e25565b50600580548060010182816108d49190610e77565b9160005260206000209001600033909190916101000a81548173ffffffffffffffffffffffffffffffffffffffff021916908373ffffffffffffffffffffffffffffffffffffffff1602179055505050565b60035481565b600160008260001916600019168152602001908152602001600020600080820160006101000a81549073ffffffffffffffffffffffffffffffffffffffff021916905560018201600090556002820160006109879190610ea3565b6003820160009055505050565b600061099f83610d7f565b90507fffffffffffffffffffffffffffffffffffffffffffffffffffffffffffffffff81141515156109d057600080fd5b6001600660009054906101000a900473ffffffffffffffffffffffffffffffffffffffff1673ffffffffffffffffffffffffffffffffffffffff166370a08231336000604051602001526040518263ffffffff167c0100000000000000000000000000000000000000000000000000000000028152600401808273ffffffffffffffffffffffffffffffffffffffff1673ffffffffffffffffffffffffffffffffffffffff168152602001915050602060405180830381600087803b1515610a9757600080fd5b6102c65a03f11515610aa857600080fd5b5050506040518051905010151515610abf57600080fd5b6001600080856000191660001916815260200190815260200160002060008282540192505081905550600660009054906101000a900473ffffffffffffffffffffffffffffffffffffffff1673ffffffffffffffffffffffffffffffffffffffff166323b872dd333060016000604051602001526040518463ffffffff167c0100000000000000000000000000000000000000000000000000000000028152600401808473ffffffffffffffffffffffffffffffffffffffff1673ffffffffffffffffffffffffffffffffffffffff1681526020018373ffffffffffffffffffffffffffffffffffffffff1673ffffffffffffffffffffffffffffffffffffffff1681526020018281526020019350505050602060405180830381600087803b1515610bea57600080fd5b6102c65a03f11515610bfb57600080fd5b50505060405180519050506001806000846000191660001916815260200190815260200160002060020182815481101515610c3257fe5b906000526020600020900160008282540192505081905550505050565b600481815481101515610c5e57fe5b90600052602060002090016000915090505481565b600581815481101515610c8257fe5b90600052602060002090016000915054906101000a900473ffffffffffffffffffffffffffffffffffffffff1681565b60008060035434811515610cc257fe5b0490506002548111151515610cd657600080fd5b600060016000856000191660001916815260200190815260200160002060000160009054906101000a900473ffffffffffffffffffffffffffffffffffffffff1673ffffffffffffffffffffffffffffffffffffffff1614151515610d3a57600080fd5b80600160008560001916600019168152602001908152602001600020600101600082825401925050819055508060026000828254039250508190555080915050919050565b600080600090505b600480549050811015610dd3578260001916600482815481101515610da857fe5b906000526020600020900154600019161415610dc657809150610df7565b8080600101915050610d87565b7fffffffffffffffffffffffffffffffffffffffffffffffffffffffffffffffff91505b50919050565b602060405190810160405280600081525090565b602060405190810160405280600081525090565b828054828255906000526020600020908101928215610e66579160200282015b82811115610e65578251829060ff16905591602001919060010190610e45565b5b509050610e739190610ec4565b5090565b815481835581811511610e9e57818360005260206000209182019101610e9d9190610ec4565b5b505050565b5080546000825590600052602060002090810190610ec19190610ec4565b50565b610ee691905b80821115610ee2576000816000905550600101610eca565b5090565b905600a165627a7a723058206746b2ca36c046794325efa82a20a63e767997841bf1adfe527cda7b2709cb730029",
  "source": "pragma solidity ^0.4.18;\n\nimport  './CorrToken.sol';\n\ncontract Voting {\n\n      struct Voter {\n            address voterAddress;\n            uint tokensAvailable;\n            uint[] votingRecord;\n            bytes32 name;\n      }\n\n      mapping(bytes32 => uint) public votesReceived;\n      mapping(bytes32 => Voter) public voterInfo;\n\n      uint public tokensAvailable;\n      uint public tokenPrice;\n\n      bytes32[] public candidateList;\n      address[] public voterAddresses;\n       CorrToken public tokenContract;\n\n      function Voting(CorrToken _tokenContract, uint _tokens, uint _pricePerToken, bytes32[] _candidateNames ) public {\n            tokenPrice = _pricePerToken;\n            candidateList = _candidateNames;\n            tokensAvailable = _tokens;\n            tokenContract = _tokenContract;\n      }\n\n      function registerVoter(bytes32 name) public {\n            voterInfo[name].name = name;\n            voterInfo[name].voterAddress = msg.sender;\n            voterInfo[name].tokensAvailable = 0;\n            // initialises voting record array\n            voterInfo[name].votingRecord = [0, 0, 0];\n            // to be used for ganache only: keep track of addresses in use\n            voterAddresses.push(msg.sender);\n      }\n\n      function getVoterAddresses() view public returns (address[]) {\n            return voterAddresses;\n      }\n\n      function voterDetails(bytes32 name) view public returns (uint,uint[], address, bytes32) {\n            return (\n                  voterInfo[name].tokensAvailable,\n                  voterInfo[name].votingRecord,\n                  voterInfo[name].voterAddress,\n                  voterInfo[name].name\n            );\n      }\n\n      function unregisterVoter(bytes32 name) public {\n            delete voterInfo[name];\n      }\n\n      function buyTokens(bytes32 name) payable public returns (uint) {\n            uint tokensToBuy = msg.value/tokenPrice;\n            // require value not over nb of tokens available\n            require(tokensToBuy <= tokensAvailable);\n            // require user has a address set (registered)\n            require(voterInfo[name].voterAddress != 0x00);\n            voterInfo[name].tokensAvailable += tokensToBuy;\n            tokensAvailable -= tokensToBuy;\n            return tokensToBuy;\n      }\n\n      function totalVotesFor(bytes32 candidate) view public returns (uint) {\n            uint index = indexOfCandidate(candidate);\n            require(index != uint(-1));\n            return votesReceived[candidate];\n      }\n\n      function voteForCandidate(bytes32 candidate, bytes32 name) public {\n            uint index = indexOfCandidate(candidate);\n            // require valid candidate\n            require(index != uint(-1));\n            // require user has enough tokens\n            require(tokenContract.balanceOf(msg.sender) >= 1);\n            // increment vote count for this candidate\n            votesReceived[candidate] += 1;\n            // decrement the nb of tkoen available by this user\n            tokenContract.transferFrom(msg.sender, this, 1);\n            ///////////////////////\n            // voterInfo[name].tokensAvailable -= 1;\n            // update the user voting record\n            voterInfo[name].votingRecord[index] += 1;\n      }\n\n      function indexOfCandidate( bytes32 candidate) view public returns (uint) {\n            for (uint i = 0; i < candidateList.length; i++) {\n                  if (candidateList[i] == candidate) {\n                        return i;\n                  }\n            }\n            return uint(-1);\n      }\n}",
  "sourcePath": "/home/machin/Workplace/repo/tests/blockchain/ethereum/voting-app-cra/contracts/Voting.sol",
  "compiler": {
    "name": "solc",
    "version": "0.4.19+commit.c4cbbb05.Emscripten.clang"
  },
  "schemaVersion": "2.0.0",
  "updatedAt": "2018-07-09T14:14:00.420Z"
}