{
  "contractName": "CorrTokenSale",
  "abi": [
    {
      "constant": true,
      "inputs": [],
      "name": "tokensSold",
      "outputs": [
        {
          "name": "",
          "type": "uint256"
        }
      ],
      "payable": false,
      "stateMutability": "view",
      "type": "function"
    },
    {
      "constant": true,
      "inputs": [],
      "name": "tokenContract",
      "outputs": [
        {
          "name": "",
          "type": "address"
        }
      ],
      "payable": false,
      "stateMutability": "view",
      "type": "function"
    },
    {
      "constant": true,
      "inputs": [],
      "name": "tokenPrice",
      "outputs": [
        {
          "name": "",
          "type": "uint256"
        }
      ],
      "payable": false,
      "stateMutability": "view",
      "type": "function"
    },
    {
      "constant": true,
      "inputs": [],
      "name": "tokensRewarded",
      "outputs": [
        {
          "name": "",
          "type": "uint256"
        }
      ],
      "payable": false,
      "stateMutability": "view",
      "type": "function"
    },
    {
      "inputs": [
        {
          "name": "_tokenContract",
          "type": "address"
        },
        {
          "name": "_tokenPrice",
          "type": "uint256"
        }
      ],
      "payable": false,
      "stateMutability": "nonpayable",
      "type": "constructor"
    },
    {
      "anonymous": false,
      "inputs": [
        {
          "indexed": true,
          "name": "_buyer",
          "type": "address"
        },
        {
          "indexed": false,
          "name": "_value",
          "type": "uint256"
        }
      ],
      "name": "Sale",
      "type": "event"
    },
    {
      "anonymous": false,
      "inputs": [
        {
          "indexed": true,
          "name": "_receiver",
          "type": "address"
        },
        {
          "indexed": false,
          "name": "_tokens",
          "type": "uint256"
        }
      ],
      "name": "Reward",
      "type": "event"
    },
    {
      "constant": false,
      "inputs": [
        {
          "name": "_numberOfTokens",
          "type": "uint256"
        }
      ],
      "name": "buy",
      "outputs": [
        {
          "name": "",
          "type": "bool"
        }
      ],
      "payable": true,
      "stateMutability": "payable",
      "type": "function"
    },
    {
      "constant": false,
      "inputs": [
        {
          "name": "_receiver",
          "type": "address"
        },
        {
          "name": "_numberOfTokens",
          "type": "uint256"
        }
      ],
      "name": "reward",
      "outputs": [
        {
          "name": "",
          "type": "bool"
        }
      ],
      "payable": false,
      "stateMutability": "nonpayable",
      "type": "function"
    },
    {
      "constant": false,
      "inputs": [],
      "name": "endSale",
      "outputs": [],
      "payable": false,
      "stateMutability": "nonpayable",
      "type": "function"
    }
  ],
  "bytecode": "0x608060405234801561001057600080fd5b50604051604080610b0c8339810180604052810190808051906020019092919080519060200190929190505050336000806101000a81548173ffffffffffffffffffffffffffffffffffffffff021916908373ffffffffffffffffffffffffffffffffffffffff1602179055508060018190555081600460006101000a81548173ffffffffffffffffffffffffffffffffffffffff021916908373ffffffffffffffffffffffffffffffffffffffff1602179055505050610a36806100d66000396000f300608060405260043610610083576000357c0100000000000000000000000000000000000000000000000000000000900463ffffffff16806321670f2214610088578063380d831b146100ed578063518ab2a81461010457806355a373d61461012f5780637ff9b59614610186578063d96a094a146101b1578063de4dbbe8146101e9575b600080fd5b34801561009457600080fd5b506100d3600480360381019080803573ffffffffffffffffffffffffffffffffffffffff16906020019092919080359060200190929190505050610214565b604051808215151515815260200191505060405180910390f35b3480156100f957600080fd5b5061010261048f565b005b34801561011057600080fd5b5061011961070f565b6040518082815260200191505060405180910390f35b34801561013b57600080fd5b50610144610715565b604051808273ffffffffffffffffffffffffffffffffffffffff1673ffffffffffffffffffffffffffffffffffffffff16815260200191505060405180910390f35b34801561019257600080fd5b5061019b61073b565b6040518082815260200191505060405180910390f35b6101cf60048036038101908080359060200190929190505050610741565b604051808215151515815260200191505060405180910390f35b3480156101f557600080fd5b506101fe6109d4565b6040518082815260200191505060405180910390f35b600081600460009054906101000a900473ffffffffffffffffffffffffffffffffffffffff1673ffffffffffffffffffffffffffffffffffffffff166370a08231306040518263ffffffff167c0100000000000000000000000000000000000000000000000000000000028152600401808273ffffffffffffffffffffffffffffffffffffffff1673ffffffffffffffffffffffffffffffffffffffff168152602001915050602060405180830381600087803b1580156102d457600080fd5b505af11580156102e8573d6000803e3d6000fd5b505050506040513d60208110156102fe57600080fd5b81019080805190602001909291905050501015151561031c57600080fd5b600460009054906101000a900473ffffffffffffffffffffffffffffffffffffffff1673ffffffffffffffffffffffffffffffffffffffff1663a9059cbb84846040518363ffffffff167c0100000000000000000000000000000000000000000000000000000000028152600401808373ffffffffffffffffffffffffffffffffffffffff1673ffffffffffffffffffffffffffffffffffffffff16815260200182815260200192505050602060405180830381600087803b1580156103e157600080fd5b505af11580156103f5573d6000803e3d6000fd5b505050506040513d602081101561040b57600080fd5b8101908080519060200190929190505050151561042757600080fd5b816003600082825401925050819055508273ffffffffffffffffffffffffffffffffffffffff167f619caafabdd75649b302ba8419e48cccf64f37f1983ac4727cfb38b57703ffc9836040518082815260200191505060405180910390a26001905092915050565b6000809054906101000a900473ffffffffffffffffffffffffffffffffffffffff1673ffffffffffffffffffffffffffffffffffffffff163373ffffffffffffffffffffffffffffffffffffffff161415156104ea57600080fd5b600460009054906101000a900473ffffffffffffffffffffffffffffffffffffffff1673ffffffffffffffffffffffffffffffffffffffff1663a9059cbb6000809054906101000a900473ffffffffffffffffffffffffffffffffffffffff16600460009054906101000a900473ffffffffffffffffffffffffffffffffffffffff1673ffffffffffffffffffffffffffffffffffffffff166370a08231306040518263ffffffff167c0100000000000000000000000000000000000000000000000000000000028152600401808273ffffffffffffffffffffffffffffffffffffffff1673ffffffffffffffffffffffffffffffffffffffff168152602001915050602060405180830381600087803b15801561060757600080fd5b505af115801561061b573d6000803e3d6000fd5b505050506040513d602081101561063157600080fd5b81019080805190602001909291905050506040518363ffffffff167c0100000000000000000000000000000000000000000000000000000000028152600401808373ffffffffffffffffffffffffffffffffffffffff1673ffffffffffffffffffffffffffffffffffffffff16815260200182815260200192505050602060405180830381600087803b1580156106c757600080fd5b505af11580156106db573d6000803e3d6000fd5b505050506040513d60208110156106f157600080fd5b8101908080519060200190929190505050151561070d57600080fd5b565b60025481565b600460009054906101000a900473ffffffffffffffffffffffffffffffffffffffff1681565b60015481565b600061074f826001546109da565b3414151561075c57600080fd5b81600460009054906101000a900473ffffffffffffffffffffffffffffffffffffffff1673ffffffffffffffffffffffffffffffffffffffff166370a08231306040518263ffffffff167c0100000000000000000000000000000000000000000000000000000000028152600401808273ffffffffffffffffffffffffffffffffffffffff1673ffffffffffffffffffffffffffffffffffffffff168152602001915050602060405180830381600087803b15801561081a57600080fd5b505af115801561082e573d6000803e3d6000fd5b505050506040513d602081101561084457600080fd5b81019080805190602001909291905050501015151561086257600080fd5b600460009054906101000a900473ffffffffffffffffffffffffffffffffffffffff1673ffffffffffffffffffffffffffffffffffffffff1663a9059cbb33846040518363ffffffff167c0100000000000000000000000000000000000000000000000000000000028152600401808373ffffffffffffffffffffffffffffffffffffffff1673ffffffffffffffffffffffffffffffffffffffff16815260200182815260200192505050602060405180830381600087803b15801561092757600080fd5b505af115801561093b573d6000803e3d6000fd5b505050506040513d602081101561095157600080fd5b8101908080519060200190929190505050151561096d57600080fd5b816002600082825401925050819055503373ffffffffffffffffffffffffffffffffffffffff167fc6851889326b4ff916523ef06f539b4cf0b81d78fc6e0f97c30e6223d1831990346040518082815260200191505060405180910390a260019050919050565b60035481565b6000808214806109f9575082828385029250828115156109f657fe5b04145b1515610a0457600080fd5b929150505600a165627a7a7230582012048f646feba6ac2cf23cd29cee8988d48ccebfd987a9c089f69d37d75801c20029",
  "source": "pragma solidity ^0.4.2;\n\nimport  './CorrToken.sol';\n\ncontract CorrTokenSale {\n      address admin;\n      uint256 public tokenPrice;\n      uint256 public tokensSold;\n      uint256 public tokensRewarded;\n      CorrToken public tokenContract;\n\n      event Sale(\n            address indexed _buyer,\n            uint256 _value\n      );\n\n      event Reward(\n            address indexed _receiver,\n            uint256 _tokens\n      );\n\n      /**\n      * Constructor function\n      */\n      constructor(CorrToken _tokenContract, uint256 _tokenPrice) public {\n            admin = msg.sender;\n            tokenPrice = _tokenPrice;\n            tokenContract = _tokenContract;\n      }\n\n      /**\n      * Safe multiplication of uint\n      *\n      */\n      function mul(uint _x, uint _y) internal pure returns (uint z) {\n            require(_y == 0 || (z = _x * _y) / _y == _x);\n      }\n\n      /**\n      * Transfer tokens to a buyer\n      *\n      * @param _numberOfTokens - number of tokens being purchased\n      * @return - true on success\n      */\n      function buy(uint256 _numberOfTokens) public payable returns (bool) {\n            // require the value corresponds to nb of tokens\n            require(msg.value == mul(_numberOfTokens, tokenPrice));\n\n            // require we have enough tokens in the contract\n            require(tokenContract.balanceOf(this) >= _numberOfTokens);\n\n            // transfer the amount of tokens to buyer\n            require(tokenContract.transfer(msg.sender, _numberOfTokens));\n\n            // keep track of tokens sold\n            tokensSold += _numberOfTokens;\n\n            // trigger sale event\n            emit Sale(msg.sender, msg.value);\n\n            // return true on success\n            return true;\n      }\n\n      /**\n      * Transfer tokens to a user for free\n      *\n      * @param _receiver - the address to receive the free tokens\n      * @param _numberOfTokens - number of tokens being given away\n      * @return - true on success\n      */\n      function reward(address _receiver, uint256 _numberOfTokens) public returns (bool) {\n            // require we have enough tokens in the contract\n            require(tokenContract.balanceOf(this) >= _numberOfTokens);\n\n            // transfer the tokens to the caller\n            require(tokenContract.transfer(_receiver, _numberOfTokens));\n\n            // keep track of tokens rewarded\n            tokensRewarded += _numberOfTokens;\n\n            // trigger Reward event\n            emit Reward(_receiver, _numberOfTokens);\n\n            // return true on success\n            return true;\n      }\n\n      /**\n      * Transfer all the tokens this contract hold back to the admin account\n      */\n      function endSale() public  {\n            require(msg.sender == admin);\n            require(tokenContract.transfer(admin, tokenContract.balanceOf(this)));\n            // [TODO]: why throws an error when running tests ?\n            // selfdestruct(admin);\n      }\n}",
  "sourcePath": "/home/machin/Workplace/projects/ethereum-voting-app/contracts/CorrTokenSale.sol",
  "compiler": {
    "name": "solc",
    "version": "0.4.24+commit.e67f0147.Emscripten.clang"
  },
  "schemaVersion": "2.0.1",
  "updatedAt": "2018-11-04T00:01:44.578Z"
}