{
  "contractName": "CorrTokenSale",
  "abi": [
    {
      "constant": true,
      "inputs": [],
      "name": "tokensSold",
      "outputs": [
        {
          "name": "",
          "type": "uint256"
        }
      ],
      "payable": false,
      "stateMutability": "view",
      "type": "function"
    },
    {
      "constant": true,
      "inputs": [],
      "name": "tokenContract",
      "outputs": [
        {
          "name": "",
          "type": "address"
        }
      ],
      "payable": false,
      "stateMutability": "view",
      "type": "function"
    },
    {
      "constant": true,
      "inputs": [],
      "name": "tokenPrice",
      "outputs": [
        {
          "name": "",
          "type": "uint256"
        }
      ],
      "payable": false,
      "stateMutability": "view",
      "type": "function"
    },
    {
      "constant": true,
      "inputs": [],
      "name": "tokensRewarded",
      "outputs": [
        {
          "name": "",
          "type": "uint256"
        }
      ],
      "payable": false,
      "stateMutability": "view",
      "type": "function"
    },
    {
      "inputs": [
        {
          "name": "_tokenContract",
          "type": "address"
        },
        {
          "name": "_tokenPrice",
          "type": "uint256"
        }
      ],
      "payable": false,
      "stateMutability": "nonpayable",
      "type": "constructor"
    },
    {
      "anonymous": false,
      "inputs": [
        {
          "indexed": true,
          "name": "_buyer",
          "type": "address"
        },
        {
          "indexed": false,
          "name": "_value",
          "type": "uint256"
        }
      ],
      "name": "Sale",
      "type": "event"
    },
    {
      "anonymous": false,
      "inputs": [
        {
          "indexed": true,
          "name": "_receiver",
          "type": "address"
        },
        {
          "indexed": false,
          "name": "_tokens",
          "type": "uint256"
        }
      ],
      "name": "Reward",
      "type": "event"
    },
    {
      "constant": false,
      "inputs": [
        {
          "name": "_numberOfTokens",
          "type": "uint256"
        }
      ],
      "name": "buy",
      "outputs": [],
      "payable": true,
      "stateMutability": "payable",
      "type": "function"
    },
    {
      "constant": false,
      "inputs": [
        {
          "name": "receiver",
          "type": "address"
        },
        {
          "name": "_numberOfTokens",
          "type": "uint256"
        }
      ],
      "name": "reward",
      "outputs": [],
      "payable": false,
      "stateMutability": "nonpayable",
      "type": "function"
    },
    {
      "constant": false,
      "inputs": [],
      "name": "endSale",
      "outputs": [],
      "payable": false,
      "stateMutability": "nonpayable",
      "type": "function"
    }
  ],
  "bytecode": "0x6060604052341561000f57600080fd5b604051604080610a1683398101604052808051906020019091908051906020019091905050336000806101000a81548173ffffffffffffffffffffffffffffffffffffffff021916908373ffffffffffffffffffffffffffffffffffffffff1602179055508060018190555081600460006101000a81548173ffffffffffffffffffffffffffffffffffffffff021916908373ffffffffffffffffffffffffffffffffffffffff1602179055505050610949806100cd6000396000f300606060405260043610610083576000357c0100000000000000000000000000000000000000000000000000000000900463ffffffff16806321670f2214610088578063380d831b146100ca578063518ab2a8146100df57806355a373d6146101085780637ff9b5961461015d578063d96a094a14610186578063de4dbbe81461019e575b600080fd5b341561009357600080fd5b6100c8600480803573ffffffffffffffffffffffffffffffffffffffff169060200190919080359060200190919050506101c7565b005b34156100d557600080fd5b6100dd61040a565b005b34156100ea57600080fd5b6100f261065a565b6040518082815260200191505060405180910390f35b341561011357600080fd5b61011b610660565b604051808273ffffffffffffffffffffffffffffffffffffffff1673ffffffffffffffffffffffffffffffffffffffff16815260200191505060405180910390f35b341561016857600080fd5b610170610686565b6040518082815260200191505060405180910390f35b61019c600480803590602001909190505061068c565b005b34156101a957600080fd5b6101b16108e7565b6040518082815260200191505060405180910390f35b80600460009054906101000a900473ffffffffffffffffffffffffffffffffffffffff1673ffffffffffffffffffffffffffffffffffffffff166370a08231306000604051602001526040518263ffffffff167c0100000000000000000000000000000000000000000000000000000000028152600401808273ffffffffffffffffffffffffffffffffffffffff1673ffffffffffffffffffffffffffffffffffffffff168152602001915050602060405180830381600087803b151561028d57600080fd5b6102c65a03f1151561029e57600080fd5b50505060405180519050101515156102b557600080fd5b600460009054906101000a900473ffffffffffffffffffffffffffffffffffffffff1673ffffffffffffffffffffffffffffffffffffffff1663a9059cbb83836000604051602001526040518363ffffffff167c0100000000000000000000000000000000000000000000000000000000028152600401808373ffffffffffffffffffffffffffffffffffffffff1673ffffffffffffffffffffffffffffffffffffffff16815260200182815260200192505050602060405180830381600087803b151561038257600080fd5b6102c65a03f1151561039357600080fd5b5050506040518051905015156103a857600080fd5b806003600082825401925050819055508173ffffffffffffffffffffffffffffffffffffffff167f619caafabdd75649b302ba8419e48cccf64f37f1983ac4727cfb38b57703ffc9826040518082815260200191505060405180910390a25050565b6000809054906101000a900473ffffffffffffffffffffffffffffffffffffffff1673ffffffffffffffffffffffffffffffffffffffff163373ffffffffffffffffffffffffffffffffffffffff1614151561046557600080fd5b600460009054906101000a900473ffffffffffffffffffffffffffffffffffffffff1673ffffffffffffffffffffffffffffffffffffffff1663a9059cbb6000809054906101000a900473ffffffffffffffffffffffffffffffffffffffff16600460009054906101000a900473ffffffffffffffffffffffffffffffffffffffff1673ffffffffffffffffffffffffffffffffffffffff166370a08231306000604051602001526040518263ffffffff167c0100000000000000000000000000000000000000000000000000000000028152600401808273ffffffffffffffffffffffffffffffffffffffff1673ffffffffffffffffffffffffffffffffffffffff168152602001915050602060405180830381600087803b151561058a57600080fd5b6102c65a03f1151561059b57600080fd5b505050604051805190506000604051602001526040518363ffffffff167c0100000000000000000000000000000000000000000000000000000000028152600401808373ffffffffffffffffffffffffffffffffffffffff1673ffffffffffffffffffffffffffffffffffffffff16815260200182815260200192505050602060405180830381600087803b151561063257600080fd5b6102c65a03f1151561064357600080fd5b50505060405180519050151561065857600080fd5b565b60025481565b600460009054906101000a900473ffffffffffffffffffffffffffffffffffffffff1681565b60015481565b610698816001546108ed565b341415156106a557600080fd5b80600460009054906101000a900473ffffffffffffffffffffffffffffffffffffffff1673ffffffffffffffffffffffffffffffffffffffff166370a08231306000604051602001526040518263ffffffff167c0100000000000000000000000000000000000000000000000000000000028152600401808273ffffffffffffffffffffffffffffffffffffffff1673ffffffffffffffffffffffffffffffffffffffff168152602001915050602060405180830381600087803b151561076b57600080fd5b6102c65a03f1151561077c57600080fd5b505050604051805190501015151561079357600080fd5b600460009054906101000a900473ffffffffffffffffffffffffffffffffffffffff1673ffffffffffffffffffffffffffffffffffffffff1663a9059cbb33836000604051602001526040518363ffffffff167c0100000000000000000000000000000000000000000000000000000000028152600401808373ffffffffffffffffffffffffffffffffffffffff1673ffffffffffffffffffffffffffffffffffffffff16815260200182815260200192505050602060405180830381600087803b151561086057600080fd5b6102c65a03f1151561087157600080fd5b50505060405180519050151561088657600080fd5b806002600082825401925050819055503373ffffffffffffffffffffffffffffffffffffffff167fc6851889326b4ff916523ef06f539b4cf0b81d78fc6e0f97c30e6223d1831990346040518082815260200191505060405180910390a250565b60035481565b60008082148061090c5750828283850292508281151561090957fe5b04145b151561091757600080fd5b929150505600a165627a7a72305820b72c65772192beb7854443921eb6f293a4fdaea473f6ecbde20812cd1bcbee7c0029",
  "source": "pragma solidity ^0.4.2;\n\nimport  './CorrToken.sol';\n\ncontract CorrTokenSale {\n      address admin;\n      uint256 public tokenPrice;\n      uint256 public tokensSold;\n      uint256 public tokensRewarded;\n      CorrToken public tokenContract;\n\n      event Sale(\n            address indexed _buyer,\n            uint256 _value\n      );\n\n      event Reward(\n            address indexed _receiver,\n            uint256 _tokens\n      );\n\n      function CorrTokenSale(CorrToken _tokenContract, uint256 _tokenPrice) public {\n            admin = msg.sender;\n            tokenPrice = _tokenPrice;\n            tokenContract = _tokenContract;\n      }\n\n      function mul(uint _x, uint _y) internal pure returns (uint z) {\n            require(_y == 0 || (z = _x * _y) / _y == _x);\n      }\n\n      function buy(uint256 _numberOfTokens) public payable {\n            // require the value corresponds to nb of tokens\n            require(msg.value == mul(_numberOfTokens, tokenPrice));\n\n            // require we have enough tokens in the contract\n            require(tokenContract.balanceOf(this) >= _numberOfTokens);\n\n            // transfer the amount of tokens to buyer\n            require(tokenContract.transfer(msg.sender, _numberOfTokens));\n\n            // keep track of tokens sold\n            tokensSold += _numberOfTokens;\n\n            // trigger sale event\n            Sale(msg.sender, msg.value);\n      }\n\n      function reward (address receiver, uint256 _numberOfTokens) public {\n            // require we have enough tokens in the contract\n            require(tokenContract.balanceOf(this) >= _numberOfTokens);\n\n            // transfer the tokens to the caller\n            require(tokenContract.transfer(receiver, _numberOfTokens));\n\n            // keep track of tokens rewarded\n            tokensRewarded += _numberOfTokens;\n\n            // trigger Reward event\n            Reward(receiver, _numberOfTokens);\n      }\n\n      function endSale() public  {\n            require(msg.sender == admin);\n            require(tokenContract.transfer(admin, tokenContract.balanceOf(this)));\n            // [TODO]: why throws an error when running tests ?\n            // selfdestruct(admin);\n      }\n}",
  "sourcePath": "/home/machin/Workplace/projects/ethereum-voting-app/contracts/CorrTokenSale.sol",
  "compiler": {
    "name": "solc",
    "version": "0.4.19+commit.c4cbbb05.Emscripten.clang"
  },
  "schemaVersion": "2.0.0",
  "updatedAt": "2018-10-22T16:34:28.278Z"
}