{
  "contractName": "CorrTokenSale",
  "abi": [
    {
      "constant": true,
      "inputs": [],
      "name": "tokensSold",
      "outputs": [
        {
          "name": "",
          "type": "uint256"
        }
      ],
      "payable": false,
      "stateMutability": "view",
      "type": "function"
    },
    {
      "constant": true,
      "inputs": [],
      "name": "tokenContract",
      "outputs": [
        {
          "name": "",
          "type": "address"
        }
      ],
      "payable": false,
      "stateMutability": "view",
      "type": "function"
    },
    {
      "constant": true,
      "inputs": [],
      "name": "tokenPrice",
      "outputs": [
        {
          "name": "",
          "type": "uint256"
        }
      ],
      "payable": false,
      "stateMutability": "view",
      "type": "function"
    },
    {
      "inputs": [
        {
          "name": "_tokenContract",
          "type": "address"
        },
        {
          "name": "_tokenPrice",
          "type": "uint256"
        }
      ],
      "payable": false,
      "stateMutability": "nonpayable",
      "type": "constructor"
    },
    {
      "anonymous": false,
      "inputs": [
        {
          "indexed": true,
          "name": "_buyer",
          "type": "address"
        },
        {
          "indexed": false,
          "name": "_value",
          "type": "uint256"
        }
      ],
      "name": "Sale",
      "type": "event"
    },
    {
      "constant": false,
      "inputs": [
        {
          "name": "_numberOfTokens",
          "type": "uint256"
        }
      ],
      "name": "buy",
      "outputs": [],
      "payable": true,
      "stateMutability": "payable",
      "type": "function"
    },
    {
      "constant": false,
      "inputs": [
        {
          "name": "_numberOfTokens",
          "type": "uint256"
        }
      ],
      "name": "spend",
      "outputs": [],
      "payable": true,
      "stateMutability": "payable",
      "type": "function"
    },
    {
      "constant": false,
      "inputs": [],
      "name": "endSale",
      "outputs": [],
      "payable": false,
      "stateMutability": "nonpayable",
      "type": "function"
    }
  ],
  "bytecode": "0x6060604052341561000f57600080fd5b604051604080610a7a83398101604052808051906020019091908051906020019091905050336000806101000a81548173ffffffffffffffffffffffffffffffffffffffff021916908373ffffffffffffffffffffffffffffffffffffffff1602179055508060018190555081600360006101000a81548173ffffffffffffffffffffffffffffffffffffffff021916908373ffffffffffffffffffffffffffffffffffffffff16021790555050506109ad806100cd6000396000f300606060405260043610610078576000357c0100000000000000000000000000000000000000000000000000000000900463ffffffff1680631dbf3bc71461007d578063380d831b14610095578063518ab2a8146100aa57806355a373d6146100d35780637ff9b59614610128578063d96a094a14610151575b600080fd5b6100936004808035906020019091905050610169565b005b34156100a057600080fd5b6100a8610474565b005b34156100b557600080fd5b6100bd6106c4565b6040518082815260200191505060405180910390f35b34156100de57600080fd5b6100e66106ca565b604051808273ffffffffffffffffffffffffffffffffffffffff1673ffffffffffffffffffffffffffffffffffffffff16815260200191505060405180910390f35b341561013357600080fd5b61013b6106f0565b6040518082815260200191505060405180910390f35b61016760048080359060200190919050506106f6565b005b80600360009054906101000a900473ffffffffffffffffffffffffffffffffffffffff1673ffffffffffffffffffffffffffffffffffffffff166370a08231336000604051602001526040518263ffffffff167c0100000000000000000000000000000000000000000000000000000000028152600401808273ffffffffffffffffffffffffffffffffffffffff1673ffffffffffffffffffffffffffffffffffffffff168152602001915050602060405180830381600087803b151561022f57600080fd5b6102c65a03f1151561024057600080fd5b505050604051805190501015151561025757600080fd5b600360009054906101000a900473ffffffffffffffffffffffffffffffffffffffff1673ffffffffffffffffffffffffffffffffffffffff1663095ea7b333836000604051602001526040518363ffffffff167c0100000000000000000000000000000000000000000000000000000000028152600401808373ffffffffffffffffffffffffffffffffffffffff1673ffffffffffffffffffffffffffffffffffffffff16815260200182815260200192505050602060405180830381600087803b151561032457600080fd5b6102c65a03f1151561033557600080fd5b50505060405180519050151561034a57600080fd5b600360009054906101000a900473ffffffffffffffffffffffffffffffffffffffff1673ffffffffffffffffffffffffffffffffffffffff166323b872dd3330846000604051602001526040518463ffffffff167c0100000000000000000000000000000000000000000000000000000000028152600401808473ffffffffffffffffffffffffffffffffffffffff1673ffffffffffffffffffffffffffffffffffffffff1681526020018373ffffffffffffffffffffffffffffffffffffffff1673ffffffffffffffffffffffffffffffffffffffff1681526020018281526020019350505050602060405180830381600087803b151561044b57600080fd5b6102c65a03f1151561045c57600080fd5b50505060405180519050151561047157600080fd5b50565b6000809054906101000a900473ffffffffffffffffffffffffffffffffffffffff1673ffffffffffffffffffffffffffffffffffffffff163373ffffffffffffffffffffffffffffffffffffffff161415156104cf57600080fd5b600360009054906101000a900473ffffffffffffffffffffffffffffffffffffffff1673ffffffffffffffffffffffffffffffffffffffff1663a9059cbb6000809054906101000a900473ffffffffffffffffffffffffffffffffffffffff16600360009054906101000a900473ffffffffffffffffffffffffffffffffffffffff1673ffffffffffffffffffffffffffffffffffffffff166370a08231306000604051602001526040518263ffffffff167c0100000000000000000000000000000000000000000000000000000000028152600401808273ffffffffffffffffffffffffffffffffffffffff1673ffffffffffffffffffffffffffffffffffffffff168152602001915050602060405180830381600087803b15156105f457600080fd5b6102c65a03f1151561060557600080fd5b505050604051805190506000604051602001526040518363ffffffff167c0100000000000000000000000000000000000000000000000000000000028152600401808373ffffffffffffffffffffffffffffffffffffffff1673ffffffffffffffffffffffffffffffffffffffff16815260200182815260200192505050602060405180830381600087803b151561069c57600080fd5b6102c65a03f115156106ad57600080fd5b5050506040518051905015156106c257600080fd5b565b60025481565b600360009054906101000a900473ffffffffffffffffffffffffffffffffffffffff1681565b60015481565b61070281600154610951565b3414151561070f57600080fd5b80600360009054906101000a900473ffffffffffffffffffffffffffffffffffffffff1673ffffffffffffffffffffffffffffffffffffffff166370a08231306000604051602001526040518263ffffffff167c0100000000000000000000000000000000000000000000000000000000028152600401808273ffffffffffffffffffffffffffffffffffffffff1673ffffffffffffffffffffffffffffffffffffffff168152602001915050602060405180830381600087803b15156107d557600080fd5b6102c65a03f115156107e657600080fd5b50505060405180519050101515156107fd57600080fd5b600360009054906101000a900473ffffffffffffffffffffffffffffffffffffffff1673ffffffffffffffffffffffffffffffffffffffff1663a9059cbb33836000604051602001526040518363ffffffff167c0100000000000000000000000000000000000000000000000000000000028152600401808373ffffffffffffffffffffffffffffffffffffffff1673ffffffffffffffffffffffffffffffffffffffff16815260200182815260200192505050602060405180830381600087803b15156108ca57600080fd5b6102c65a03f115156108db57600080fd5b5050506040518051905015156108f057600080fd5b806002600082825401925050819055503373ffffffffffffffffffffffffffffffffffffffff167fc6851889326b4ff916523ef06f539b4cf0b81d78fc6e0f97c30e6223d1831990346040518082815260200191505060405180910390a250565b6000808214806109705750828283850292508281151561096d57fe5b04145b151561097b57600080fd5b929150505600a165627a7a723058209c849733cc08e63439dcb4fd01958f435cc0a2447056c000844c81a42ee4dc640029",
  "source": "pragma solidity ^0.4.2;\n\nimport  './CorrToken.sol';\n\ncontract CorrTokenSale {\n      address admin;\n      uint256 public tokenPrice;\n      uint256 public tokensSold;\n      CorrToken public tokenContract;\n\n      event Sale(\n            address indexed _buyer,\n            uint256 _value\n      );\n\n      function CorrTokenSale(CorrToken _tokenContract, uint256 _tokenPrice) public {\n            admin = msg.sender;\n            tokenPrice = _tokenPrice;\n            tokenContract = _tokenContract;\n      }\n\n      function mul(uint _x, uint _y) internal pure returns (uint z) {\n            require(_y == 0 || (z = _x * _y) / _y == _x);\n      }\n\n      function buy(uint256 _numberOfTokens) public payable {\n            // require the value corresponds to nb of tokens\n            require(msg.value == mul(_numberOfTokens, tokenPrice));\n            // require we have enough tokens in the contract\n            require(tokenContract.balanceOf(this) >= _numberOfTokens);\n            // transfer the amount of tokens to buyer\n            require(tokenContract.transfer(msg.sender, _numberOfTokens));\n            // keep track of tokens sold\n            tokensSold += _numberOfTokens;\n            // Trigger sale event\n            Sale(msg.sender, msg.value);\n      }\n\n      function spend(uint256 _numberOfTokens) public payable {\n            // require spender has enough tokens\n            require(tokenContract.balanceOf(msg.sender) >= _numberOfTokens);\n            // first approve this contract to transfer on behalf of spender\n            require(tokenContract.approve(msg.sender, _numberOfTokens));\n            // transfer the amount of tokens from spender to this contract\n            require(tokenContract.transferFrom(msg.sender, this, _numberOfTokens));\n      }\n\n      function endSale() public  {\n            require(msg.sender == admin);\n            require(tokenContract.transfer(admin, tokenContract.balanceOf(this)));\n            // [TODO]: why throws an error when running tests ?\n            // selfdestruct(admin);\n      }\n}",
  "sourcePath": "/home/machin/Workplace/projects/ethereum-voting-app/contracts/CorrTokenSale.sol",
  "compiler": {
    "name": "solc",
    "version": "0.4.19+commit.c4cbbb05.Emscripten.clang"
  },
  "schemaVersion": "2.0.0",
  "updatedAt": "2018-09-26T22:44:13.913Z"
}