{
  "contractName": "CorrTokenSale",
  "abi": [
    {
      "constant": true,
      "inputs": [],
      "name": "tokensSold",
      "outputs": [
        {
          "name": "",
          "type": "uint256"
        }
      ],
      "payable": false,
      "stateMutability": "view",
      "type": "function"
    },
    {
      "constant": true,
      "inputs": [],
      "name": "tokenContract",
      "outputs": [
        {
          "name": "",
          "type": "address"
        }
      ],
      "payable": false,
      "stateMutability": "view",
      "type": "function"
    },
    {
      "constant": true,
      "inputs": [],
      "name": "tokenPrice",
      "outputs": [
        {
          "name": "",
          "type": "uint256"
        }
      ],
      "payable": false,
      "stateMutability": "view",
      "type": "function"
    },
    {
      "inputs": [
        {
          "name": "_tokenContract",
          "type": "address"
        },
        {
          "name": "_tokenPrice",
          "type": "uint256"
        }
      ],
      "payable": false,
      "stateMutability": "nonpayable",
      "type": "constructor"
    },
    {
      "anonymous": false,
      "inputs": [
        {
          "indexed": true,
          "name": "_buyer",
          "type": "address"
        },
        {
          "indexed": false,
          "name": "_value",
          "type": "uint256"
        }
      ],
      "name": "Sale",
      "type": "event"
    },
    {
      "constant": false,
      "inputs": [
        {
          "name": "_numberOfTokens",
          "type": "uint256"
        }
      ],
      "name": "buy",
      "outputs": [],
      "payable": true,
      "stateMutability": "payable",
      "type": "function"
    },
    {
      "constant": false,
      "inputs": [],
      "name": "endSale",
      "outputs": [],
      "payable": false,
      "stateMutability": "nonpayable",
      "type": "function"
    }
  ],
  "bytecode": "0x6060604052341561000f57600080fd5b60405160408061074c83398101604052808051906020019091908051906020019091905050336000806101000a81548173ffffffffffffffffffffffffffffffffffffffff021916908373ffffffffffffffffffffffffffffffffffffffff1602179055508060018190555081600360006101000a81548173ffffffffffffffffffffffffffffffffffffffff021916908373ffffffffffffffffffffffffffffffffffffffff160217905550505061067f806100cd6000396000f30060606040526004361061006d576000357c0100000000000000000000000000000000000000000000000000000000900463ffffffff168063380d831b14610072578063518ab2a81461008757806355a373d6146100b05780637ff9b59614610105578063d96a094a1461012e575b600080fd5b341561007d57600080fd5b610085610146565b005b341561009257600080fd5b61009a610396565b6040518082815260200191505060405180910390f35b34156100bb57600080fd5b6100c361039c565b604051808273ffffffffffffffffffffffffffffffffffffffff1673ffffffffffffffffffffffffffffffffffffffff16815260200191505060405180910390f35b341561011057600080fd5b6101186103c2565b6040518082815260200191505060405180910390f35b61014460048080359060200190919050506103c8565b005b6000809054906101000a900473ffffffffffffffffffffffffffffffffffffffff1673ffffffffffffffffffffffffffffffffffffffff163373ffffffffffffffffffffffffffffffffffffffff161415156101a157600080fd5b600360009054906101000a900473ffffffffffffffffffffffffffffffffffffffff1673ffffffffffffffffffffffffffffffffffffffff1663a9059cbb6000809054906101000a900473ffffffffffffffffffffffffffffffffffffffff16600360009054906101000a900473ffffffffffffffffffffffffffffffffffffffff1673ffffffffffffffffffffffffffffffffffffffff166370a08231306000604051602001526040518263ffffffff167c0100000000000000000000000000000000000000000000000000000000028152600401808273ffffffffffffffffffffffffffffffffffffffff1673ffffffffffffffffffffffffffffffffffffffff168152602001915050602060405180830381600087803b15156102c657600080fd5b6102c65a03f115156102d757600080fd5b505050604051805190506000604051602001526040518363ffffffff167c0100000000000000000000000000000000000000000000000000000000028152600401808373ffffffffffffffffffffffffffffffffffffffff1673ffffffffffffffffffffffffffffffffffffffff16815260200182815260200192505050602060405180830381600087803b151561036e57600080fd5b6102c65a03f1151561037f57600080fd5b50505060405180519050151561039457600080fd5b565b60025481565b600360009054906101000a900473ffffffffffffffffffffffffffffffffffffffff1681565b60015481565b6103d481600154610623565b341415156103e157600080fd5b80600360009054906101000a900473ffffffffffffffffffffffffffffffffffffffff1673ffffffffffffffffffffffffffffffffffffffff166370a08231306000604051602001526040518263ffffffff167c0100000000000000000000000000000000000000000000000000000000028152600401808273ffffffffffffffffffffffffffffffffffffffff1673ffffffffffffffffffffffffffffffffffffffff168152602001915050602060405180830381600087803b15156104a757600080fd5b6102c65a03f115156104b857600080fd5b50505060405180519050101515156104cf57600080fd5b600360009054906101000a900473ffffffffffffffffffffffffffffffffffffffff1673ffffffffffffffffffffffffffffffffffffffff1663a9059cbb33836000604051602001526040518363ffffffff167c0100000000000000000000000000000000000000000000000000000000028152600401808373ffffffffffffffffffffffffffffffffffffffff1673ffffffffffffffffffffffffffffffffffffffff16815260200182815260200192505050602060405180830381600087803b151561059c57600080fd5b6102c65a03f115156105ad57600080fd5b5050506040518051905015156105c257600080fd5b806002600082825401925050819055503373ffffffffffffffffffffffffffffffffffffffff167fc6851889326b4ff916523ef06f539b4cf0b81d78fc6e0f97c30e6223d1831990346040518082815260200191505060405180910390a250565b6000808214806106425750828283850292508281151561063f57fe5b04145b151561064d57600080fd5b929150505600a165627a7a72305820aa628f612d39f29a5ff729858fe5ed1eefaec006ad66989ad32b59d138f8255d0029",
  "source": "pragma solidity ^0.4.2;\n\nimport  './CorrToken.sol';\n\ncontract CorrTokenSale {\n      address admin;\n      uint256 public tokenPrice;\n      uint256 public tokensSold;\n      CorrToken public tokenContract;\n\n      event Sale(\n            address indexed _buyer,\n            uint256 _value\n      );\n\n      function CorrTokenSale(CorrToken _tokenContract, uint256 _tokenPrice) public {\n            admin = msg.sender;\n            tokenPrice = _tokenPrice;\n            tokenContract = _tokenContract;\n      }\n\n      function mul(uint x, uint y) internal pure returns (uint z) {\n            require(y == 0 || (z = x * y) / y == x);\n      }\n\n      function buy(uint256 _numberOfTokens) public payable {\n            // require the value corresponds to nb of tokens\n            require(msg.value == mul(_numberOfTokens, tokenPrice));\n            // require we have enough tokens in the contract\n            require(tokenContract.balanceOf(this) >= _numberOfTokens);\n            // transfer the amount of tokens to buyer\n            require(tokenContract.transfer(msg.sender, _numberOfTokens));\n            // keep track of tokens sold\n            tokensSold += _numberOfTokens;\n            // Trigger sale event\n            Sale(msg.sender, msg.value);\n      }\n\n      function endSale() public  {\n            require(msg.sender == admin);\n            require(tokenContract.transfer(admin, tokenContract.balanceOf(this)));\n            // [TODO]: why throws an error when running tests ?\n            // selfdestruct(admin);\n      }\n}",
  "sourcePath": "/home/machin/Workplace/repo/tests/blockchain/ethereum/voting-app-cra/contracts/CorrTokenSale.sol",
  "compiler": {
    "name": "solc",
    "version": "0.4.19+commit.c4cbbb05.Emscripten.clang"
  },
  "schemaVersion": "2.0.0",
  "updatedAt": "2018-07-18T17:53:02.817Z"
}