{
  "contractName": "Voting",
  "abi": [
    {
      "constant": true,
      "inputs": [
        {
          "name": "",
          "type": "bytes32"
        }
      ],
      "name": "voterInfo",
      "outputs": [
        {
          "name": "voterAddress",
          "type": "address"
        },
        {
          "name": "name",
          "type": "bytes32"
        }
      ],
      "payable": false,
      "stateMutability": "view",
      "type": "function"
    },
    {
      "constant": true,
      "inputs": [],
      "name": "tokenContract",
      "outputs": [
        {
          "name": "",
          "type": "address"
        }
      ],
      "payable": false,
      "stateMutability": "view",
      "type": "function"
    },
    {
      "constant": true,
      "inputs": [
        {
          "name": "",
          "type": "bytes32"
        }
      ],
      "name": "votesReceived",
      "outputs": [
        {
          "name": "",
          "type": "uint256"
        }
      ],
      "payable": false,
      "stateMutability": "view",
      "type": "function"
    },
    {
      "constant": true,
      "inputs": [
        {
          "name": "",
          "type": "uint256"
        }
      ],
      "name": "candidateList",
      "outputs": [
        {
          "name": "",
          "type": "bytes32"
        }
      ],
      "payable": false,
      "stateMutability": "view",
      "type": "function"
    },
    {
      "constant": true,
      "inputs": [
        {
          "name": "",
          "type": "uint256"
        }
      ],
      "name": "voterAddresses",
      "outputs": [
        {
          "name": "",
          "type": "address"
        }
      ],
      "payable": false,
      "stateMutability": "view",
      "type": "function"
    },
    {
      "inputs": [
        {
          "name": "_tokenContract",
          "type": "address"
        },
        {
          "name": "_candidateNames",
          "type": "bytes32[]"
        }
      ],
      "payable": false,
      "stateMutability": "nonpayable",
      "type": "constructor"
    },
    {
      "constant": false,
      "inputs": [
        {
          "name": "name",
          "type": "bytes32"
        }
      ],
      "name": "registerVoter",
      "outputs": [],
      "payable": false,
      "stateMutability": "nonpayable",
      "type": "function"
    },
    {
      "constant": true,
      "inputs": [],
      "name": "getVoterAddresses",
      "outputs": [
        {
          "name": "",
          "type": "address[]"
        }
      ],
      "payable": false,
      "stateMutability": "view",
      "type": "function"
    },
    {
      "constant": true,
      "inputs": [
        {
          "name": "name",
          "type": "bytes32"
        }
      ],
      "name": "voterDetails",
      "outputs": [
        {
          "name": "",
          "type": "uint256[]"
        },
        {
          "name": "",
          "type": "address"
        },
        {
          "name": "",
          "type": "bytes32"
        }
      ],
      "payable": false,
      "stateMutability": "view",
      "type": "function"
    },
    {
      "constant": false,
      "inputs": [
        {
          "name": "name",
          "type": "bytes32"
        }
      ],
      "name": "unregisterVoter",
      "outputs": [],
      "payable": false,
      "stateMutability": "nonpayable",
      "type": "function"
    },
    {
      "constant": true,
      "inputs": [
        {
          "name": "candidate",
          "type": "bytes32"
        }
      ],
      "name": "totalVotesFor",
      "outputs": [
        {
          "name": "",
          "type": "uint256"
        }
      ],
      "payable": false,
      "stateMutability": "view",
      "type": "function"
    },
    {
      "constant": false,
      "inputs": [
        {
          "name": "candidate",
          "type": "bytes32"
        },
        {
          "name": "name",
          "type": "bytes32"
        }
      ],
      "name": "voteForCandidate",
      "outputs": [],
      "payable": false,
      "stateMutability": "nonpayable",
      "type": "function"
    },
    {
      "constant": true,
      "inputs": [
        {
          "name": "candidate",
          "type": "bytes32"
        }
      ],
      "name": "indexOfCandidate",
      "outputs": [
        {
          "name": "",
          "type": "uint256"
        }
      ],
      "payable": false,
      "stateMutability": "view",
      "type": "function"
    }
  ],
  "bytecode": "0x6060604052341561000f57600080fd5b604051610e84380380610e8483398101604052808051906020019091908051820191905050806002908051906020019061004a929190610093565b5081600460006101000a81548173ffffffffffffffffffffffffffffffffffffffff021916908373ffffffffffffffffffffffffffffffffffffffff160217905550505061010b565b8280548282559060005260206000209081019282156100d5579160200282015b828111156100d45782518290600019169055916020019190600101906100b3565b5b5090506100e291906100e6565b5090565b61010891905b808211156101045760008160009055506001016100ec565b5090565b90565b610d6a8061011a6000396000f3006060604052600436106100ba576000357c0100000000000000000000000000000000000000000000000000000000900463ffffffff1680630a16e30b146100bf5780631e51c9ea146101295780632ebf5c3e146101e75780632f265cf71461025d57806355a373d6146102985780637021939f146102ed578063793c5d2114610328578063824ed7dc1461034f578063a0153cf014610376578063b13c744b146103aa578063dd0e2373146103e9578063ecd098b01461044c575b600080fd5b34156100ca57600080fd5b6100d2610487565b6040518080602001828103825283818151815260200191508051906020019060200280838360005b838110156101155780820151818401526020810190506100fa565b505050509050019250505060405180910390f35b341561013457600080fd5b61014e60048080356000191690602001909190505061051b565b60405180806020018473ffffffffffffffffffffffffffffffffffffffff1673ffffffffffffffffffffffffffffffffffffffff1681526020018360001916600019168152602001828103825285818151815260200191508051906020019060200280838360005b838110156101d15780820151818401526020810190506101b6565b5050505090500194505050505060405180910390f35b34156101f257600080fd5b61020c600480803560001916906020019091905050610601565b604051808373ffffffffffffffffffffffffffffffffffffffff1673ffffffffffffffffffffffffffffffffffffffff16815260200182600019166000191681526020019250505060405180910390f35b341561026857600080fd5b610282600480803560001916906020019091905050610645565b6040518082815260200191505060405180910390f35b34156102a357600080fd5b6102ab6106a5565b604051808273ffffffffffffffffffffffffffffffffffffffff1673ffffffffffffffffffffffffffffffffffffffff16815260200191505060405180910390f35b34156102f857600080fd5b6103126004808035600019169060200190919050506106cb565b6040518082815260200191505060405180910390f35b341561033357600080fd5b61034d6004808035600019169060200190919050506106e3565b005b341561035a57600080fd5b610374600480803560001916906020019091905050610822565b005b341561038157600080fd5b6103a860048080356000191690602001909190803560001916906020019091905050610882565b005b34156103b557600080fd5b6103cb6004808035906020019091905050610b71565b60405180826000191660001916815260200191505060405180910390f35b34156103f457600080fd5b61040a6004808035906020019091905050610b95565b604051808273ffffffffffffffffffffffffffffffffffffffff1673ffffffffffffffffffffffffffffffffffffffff16815260200191505060405180910390f35b341561045757600080fd5b610471600480803560001916906020019091905050610bd4565b6040518082815260200191505060405180910390f35b61048f610c52565b600380548060200260200160405190810160405280929190818152602001828054801561051157602002820191906000526020600020905b8160009054906101000a900473ffffffffffffffffffffffffffffffffffffffff1673ffffffffffffffffffffffffffffffffffffffff16815260200190600101908083116104c7575b5050505050905090565b610523610c66565b60008060016000856000191660001916815260200190815260200160002060010160016000866000191660001916815260200190815260200160002060000160009054906101000a900473ffffffffffffffffffffffffffffffffffffffff1660016000876000191660001916815260200190815260200160002060020154828054806020026020016040519081016040528092919081815260200182805480156105ed57602002820191906000526020600020905b8154815260200190600101908083116105d9575b505050505092509250925092509193909250565b60016020528060005260406000206000915090508060000160009054906101000a900473ffffffffffffffffffffffffffffffffffffffff16908060020154905082565b60008061065183610bd4565b90507fffffffffffffffffffffffffffffffffffffffffffffffffffffffffffffffff811415151561068257600080fd5b600080846000191660001916815260200190815260200160002054915050919050565b600460009054906101000a900473ffffffffffffffffffffffffffffffffffffffff1681565b60006020528060005260406000206000915090505481565b8060016000836000191660001916815260200190815260200160002060020181600019169055503360016000836000191660001916815260200190815260200160002060000160006101000a81548173ffffffffffffffffffffffffffffffffffffffff021916908373ffffffffffffffffffffffffffffffffffffffff160217905550606060405190810160405280600060ff168152602001600060ff168152602001600060ff168152506001600083600019166000191681526020019081526020016000206001019060036107bb929190610c7a565b50600380548060010182816107d09190610ccc565b9160005260206000209001600033909190916101000a81548173ffffffffffffffffffffffffffffffffffffffff021916908373ffffffffffffffffffffffffffffffffffffffff1602179055505050565b600160008260001916600019168152602001908152602001600020600080820160006101000a81549073ffffffffffffffffffffffffffffffffffffffff02191690556001820160006108759190610cf8565b6002820160009055505050565b600061088d83610bd4565b90507fffffffffffffffffffffffffffffffffffffffffffffffffffffffffffffffff81141515156108be57600080fd5b816000191660016000846000191660001916815260200190815260200160002060020154600019161415156108f257600080fd5b6001600460009054906101000a900473ffffffffffffffffffffffffffffffffffffffff1673ffffffffffffffffffffffffffffffffffffffff166370a08231336000604051602001526040518263ffffffff167c0100000000000000000000000000000000000000000000000000000000028152600401808273ffffffffffffffffffffffffffffffffffffffff1673ffffffffffffffffffffffffffffffffffffffff168152602001915050602060405180830381600087803b15156109b957600080fd5b6102c65a03f115156109ca57600080fd5b50505060405180519050101515156109e157600080fd5b60016000808560001916600019168152602001908152602001600020600082825401925050819055506001806000846000191660001916815260200190815260200160002060010182815481101515610a3657fe5b906000526020600020900160008282540192505081905550600460009054906101000a900473ffffffffffffffffffffffffffffffffffffffff1673ffffffffffffffffffffffffffffffffffffffff166323b872dd333060016000604051602001526040518463ffffffff167c0100000000000000000000000000000000000000000000000000000000028152600401808473ffffffffffffffffffffffffffffffffffffffff1673ffffffffffffffffffffffffffffffffffffffff1681526020018373ffffffffffffffffffffffffffffffffffffffff1673ffffffffffffffffffffffffffffffffffffffff1681526020018281526020019350505050602060405180830381600087803b1515610b5057600080fd5b6102c65a03f11515610b6157600080fd5b5050506040518051905050505050565b600281815481101515610b8057fe5b90600052602060002090016000915090505481565b600381815481101515610ba457fe5b90600052602060002090016000915054906101000a900473ffffffffffffffffffffffffffffffffffffffff1681565b600080600090505b600280549050811015610c28578260001916600282815481101515610bfd57fe5b906000526020600020900154600019161415610c1b57809150610c4c565b8080600101915050610bdc565b7fffffffffffffffffffffffffffffffffffffffffffffffffffffffffffffffff91505b50919050565b602060405190810160405280600081525090565b602060405190810160405280600081525090565b828054828255906000526020600020908101928215610cbb579160200282015b82811115610cba578251829060ff16905591602001919060010190610c9a565b5b509050610cc89190610d19565b5090565b815481835581811511610cf357818360005260206000209182019101610cf29190610d19565b5b505050565b5080546000825590600052602060002090810190610d169190610d19565b50565b610d3b91905b80821115610d37576000816000905550600101610d1f565b5090565b905600a165627a7a72305820067ee4e8085245ceaecaf528683838ae39b4a99a4b8bd7e3f88de9940ff92e420029",
  "source": "pragma solidity ^0.4.18;\n\nimport  './CorrToken.sol';\n\ncontract Voting {\n\n      struct Voter {\n            address voterAddress;\n            uint[] votingRecord;\n            bytes32 name;\n      }\n\n      mapping(bytes32 => uint) public votesReceived;\n      mapping(bytes32 => Voter) public voterInfo;\n\n\n      bytes32[] public candidateList;\n      address[] public voterAddresses;\n       CorrToken public tokenContract;\n\n      function Voting(CorrToken _tokenContract, bytes32[] _candidateNames ) public {\n            candidateList = _candidateNames;\n            tokenContract = _tokenContract;\n      }\n\n      function registerVoter(bytes32 name) public {\n            voterInfo[name].name = name;\n            voterInfo[name].voterAddress = msg.sender;\n            // initialises voting record array\n            voterInfo[name].votingRecord = [0, 0, 0];\n            // to be used for ganache only: keep track of addresses in use\n            voterAddresses.push(msg.sender);\n      }\n\n      function getVoterAddresses() view public returns (address[]) {\n            return voterAddresses;\n      }\n\n      function voterDetails(bytes32 name) view public returns (uint[], address, bytes32) {\n            return (\n                  voterInfo[name].votingRecord,\n                  voterInfo[name].voterAddress,\n                  voterInfo[name].name\n            );\n      }\n\n      function unregisterVoter(bytes32 name) public {\n            delete voterInfo[name];\n      }\n\n      function totalVotesFor(bytes32 candidate) view public returns (uint) {\n            uint index = indexOfCandidate(candidate);\n            require(index != uint(-1));\n            return votesReceived[candidate];\n      }\n\n      function voteForCandidate(bytes32 candidate, bytes32 name) public {\n            uint index = indexOfCandidate(candidate);\n            // require valid candidate\n            require(index != uint(-1));\n            // require user is registered\n            require(voterInfo[name].name == name);\n            // require user has enough tokens\n            require(tokenContract.balanceOf(msg.sender) >= 1);\n            // increment vote count for this candidate\n            votesReceived[candidate] += 1;\n            // update the user voting record\n            voterInfo[name].votingRecord[index] += 1;\n            // transfer one token from user to this contract\n            tokenContract.transferFrom(msg.sender, this, 1);\n      }\n\n      function indexOfCandidate( bytes32 candidate) view public returns (uint) {\n            for (uint i = 0; i < candidateList.length; i++) {\n                  if (candidateList[i] == candidate) {\n                        return i;\n                  }\n            }\n            return uint(-1);\n      }\n}",
  "sourcePath": "/home/machin/Workplace/repo/tests/blockchain/ethereum/voting-app-cra/contracts/Voting.sol",
  "compiler": {
    "name": "solc",
    "version": "0.4.19+commit.c4cbbb05.Emscripten.clang"
  },
  "schemaVersion": "2.0.0",
  "updatedAt": "2018-07-18T17:53:02.802Z"
}